{
  "_format": "hh-sol-artifact-1",
  "contractName": "ReputationSBT",
  "sourceName": "contracts/ReputationSBT.sol",
  "abi": [
    {
      "inputs": [
        {
          "internalType": "address",
          "name": "admin",
          "type": "address"
        },
        {
          "internalType": "address",
          "name": "operator",
          "type": "address"
        }
      ],
      "stateMutability": "nonpayable",
      "type": "constructor"
    },
    {
      "inputs": [],
      "name": "AccessControlBadConfirmation",
      "type": "error"
    },
    {
      "inputs": [
        {
          "internalType": "address",
          "name": "account",
          "type": "address"
        },
        {
          "internalType": "bytes32",
          "name": "neededRole",
          "type": "bytes32"
        }
      ],
      "name": "AccessControlUnauthorizedAccount",
      "type": "error"
    },
    {
      "inputs": [
        {
          "internalType": "address",
          "name": "sender",
          "type": "address"
        },
        {
          "internalType": "uint256",
          "name": "tokenId",
          "type": "uint256"
        },
        {
          "internalType": "address",
          "name": "owner",
          "type": "address"
        }
      ],
      "name": "ERC721IncorrectOwner",
      "type": "error"
    },
    {
      "inputs": [
        {
          "internalType": "address",
          "name": "operator",
          "type": "address"
        },
        {
          "internalType": "uint256",
          "name": "tokenId",
          "type": "uint256"
        }
      ],
      "name": "ERC721InsufficientApproval",
      "type": "error"
    },
    {
      "inputs": [
        {
          "internalType": "address",
          "name": "approver",
          "type": "address"
        }
      ],
      "name": "ERC721InvalidApprover",
      "type": "error"
    },
    {
      "inputs": [
        {
          "internalType": "address",
          "name": "operator",
          "type": "address"
        }
      ],
      "name": "ERC721InvalidOperator",
      "type": "error"
    },
    {
      "inputs": [
        {
          "internalType": "address",
          "name": "owner",
          "type": "address"
        }
      ],
      "name": "ERC721InvalidOwner",
      "type": "error"
    },
    {
      "inputs": [
        {
          "internalType": "address",
          "name": "receiver",
          "type": "address"
        }
      ],
      "name": "ERC721InvalidReceiver",
      "type": "error"
    },
    {
      "inputs": [
        {
          "internalType": "address",
          "name": "sender",
          "type": "address"
        }
      ],
      "name": "ERC721InvalidSender",
      "type": "error"
    },
    {
      "inputs": [
        {
          "internalType": "uint256",
          "name": "tokenId",
          "type": "uint256"
        }
      ],
      "name": "ERC721NonexistentToken",
      "type": "error"
    },
    {
      "anonymous": false,
      "inputs": [
        {
          "indexed": true,
          "internalType": "address",
          "name": "owner",
          "type": "address"
        },
        {
          "indexed": true,
          "internalType": "address",
          "name": "approved",
          "type": "address"
        },
        {
          "indexed": true,
          "internalType": "uint256",
          "name": "tokenId",
          "type": "uint256"
        }
      ],
      "name": "Approval",
      "type": "event"
    },
    {
      "anonymous": false,
      "inputs": [
        {
          "indexed": true,
          "internalType": "address",
          "name": "owner",
          "type": "address"
        },
        {
          "indexed": true,
          "internalType": "address",
          "name": "operator",
          "type": "address"
        },
        {
          "indexed": false,
          "internalType": "bool",
          "name": "approved",
          "type": "bool"
        }
      ],
      "name": "ApprovalForAll",
      "type": "event"
    },
    {
      "anonymous": false,
      "inputs": [
        {
          "indexed": true,
          "internalType": "uint256",
          "name": "tokenId",
          "type": "uint256"
        }
      ],
      "name": "Locked",
      "type": "event"
    },
    {
      "anonymous": false,
      "inputs": [
        {
          "indexed": true,
          "internalType": "bytes32",
          "name": "agreementId",
          "type": "bytes32"
        },
        {
          "indexed": false,
          "internalType": "address",
          "name": "tenant",
          "type": "address"
        },
        {
          "indexed": false,
          "internalType": "uint8",
          "name": "tenantScore",
          "type": "uint8"
        },
        {
          "indexed": false,
          "internalType": "address",
          "name": "owner",
          "type": "address"
        },
        {
          "indexed": false,
          "internalType": "uint8",
          "name": "ownerScore",
          "type": "uint8"
        }
      ],
      "name": "ReputationMinted",
      "type": "event"
    },
    {
      "anonymous": false,
      "inputs": [
        {
          "indexed": true,
          "internalType": "bytes32",
          "name": "role",
          "type": "bytes32"
        },
        {
          "indexed": true,
          "internalType": "bytes32",
          "name": "previousAdminRole",
          "type": "bytes32"
        },
        {
          "indexed": true,
          "internalType": "bytes32",
          "name": "newAdminRole",
          "type": "bytes32"
        }
      ],
      "name": "RoleAdminChanged",
      "type": "event"
    },
    {
      "anonymous": false,
      "inputs": [
        {
          "indexed": true,
          "internalType": "bytes32",
          "name": "role",
          "type": "bytes32"
        },
        {
          "indexed": true,
          "internalType": "address",
          "name": "account",
          "type": "address"
        },
        {
          "indexed": true,
          "internalType": "address",
          "name": "sender",
          "type": "address"
        }
      ],
      "name": "RoleGranted",
      "type": "event"
    },
    {
      "anonymous": false,
      "inputs": [
        {
          "indexed": true,
          "internalType": "bytes32",
          "name": "role",
          "type": "bytes32"
        },
        {
          "indexed": true,
          "internalType": "address",
          "name": "account",
          "type": "address"
        },
        {
          "indexed": true,
          "internalType": "address",
          "name": "sender",
          "type": "address"
        }
      ],
      "name": "RoleRevoked",
      "type": "event"
    },
    {
      "anonymous": false,
      "inputs": [
        {
          "indexed": true,
          "internalType": "address",
          "name": "from",
          "type": "address"
        },
        {
          "indexed": true,
          "internalType": "address",
          "name": "to",
          "type": "address"
        },
        {
          "indexed": true,
          "internalType": "uint256",
          "name": "tokenId",
          "type": "uint256"
        }
      ],
      "name": "Transfer",
      "type": "event"
    },
    {
      "anonymous": false,
      "inputs": [
        {
          "indexed": true,
          "internalType": "uint256",
          "name": "tokenId",
          "type": "uint256"
        }
      ],
      "name": "Unlocked",
      "type": "event"
    },
    {
      "inputs": [],
      "name": "DEFAULT_ADMIN_ROLE",
      "outputs": [
        {
          "internalType": "bytes32",
          "name": "",
          "type": "bytes32"
        }
      ],
      "stateMutability": "view",
      "type": "function"
    },
    {
      "inputs": [],
      "name": "OPERATOR_ROLE",
      "outputs": [
        {
          "internalType": "bytes32",
          "name": "",
          "type": "bytes32"
        }
      ],
      "stateMutability": "view",
      "type": "function"
    },
    {
      "inputs": [
        {
          "internalType": "address",
          "name": "to",
          "type": "address"
        },
        {
          "internalType": "uint256",
          "name": "tokenId",
          "type": "uint256"
        }
      ],
      "name": "approve",
      "outputs": [],
      "stateMutability": "nonpayable",
      "type": "function"
    },
    {
      "inputs": [
        {
          "internalType": "address",
          "name": "owner",
          "type": "address"
        }
      ],
      "name": "balanceOf",
      "outputs": [
        {
          "internalType": "uint256",
          "name": "",
          "type": "uint256"
        }
      ],
      "stateMutability": "view",
      "type": "function"
    },
    {
      "inputs": [
        {
          "internalType": "uint256",
          "name": "tokenId",
          "type": "uint256"
        }
      ],
      "name": "getApproved",
      "outputs": [
        {
          "internalType": "address",
          "name": "",
          "type": "address"
        }
      ],
      "stateMutability": "view",
      "type": "function"
    },
    {
      "inputs": [
        {
          "internalType": "bytes32",
          "name": "role",
          "type": "bytes32"
        }
      ],
      "name": "getRoleAdmin",
      "outputs": [
        {
          "internalType": "bytes32",
          "name": "",
          "type": "bytes32"
        }
      ],
      "stateMutability": "view",
      "type": "function"
    },
    {
      "inputs": [
        {
          "internalType": "bytes32",
          "name": "role",
          "type": "bytes32"
        },
        {
          "internalType": "address",
          "name": "account",
          "type": "address"
        }
      ],
      "name": "grantRole",
      "outputs": [],
      "stateMutability": "nonpayable",
      "type": "function"
    },
    {
      "inputs": [
        {
          "internalType": "bytes32",
          "name": "role",
          "type": "bytes32"
        },
        {
          "internalType": "address",
          "name": "account",
          "type": "address"
        }
      ],
      "name": "hasRole",
      "outputs": [
        {
          "internalType": "bool",
          "name": "",
          "type": "bool"
        }
      ],
      "stateMutability": "view",
      "type": "function"
    },
    {
      "inputs": [
        {
          "internalType": "address",
          "name": "owner",
          "type": "address"
        },
        {
          "internalType": "address",
          "name": "operator",
          "type": "address"
        }
      ],
      "name": "isApprovedForAll",
      "outputs": [
        {
          "internalType": "bool",
          "name": "",
          "type": "bool"
        }
      ],
      "stateMutability": "view",
      "type": "function"
    },
    {
      "inputs": [
        {
          "internalType": "uint256",
          "name": "",
          "type": "uint256"
        }
      ],
      "name": "locked",
      "outputs": [
        {
          "internalType": "bool",
          "name": "",
          "type": "bool"
        }
      ],
      "stateMutability": "pure",
      "type": "function"
    },
    {
      "inputs": [
        {
          "internalType": "bytes32",
          "name": "agreementId",
          "type": "bytes32"
        },
        {
          "internalType": "address",
          "name": "tenant",
          "type": "address"
        },
        {
          "internalType": "uint8",
          "name": "tenantScore",
          "type": "uint8"
        },
        {
          "internalType": "address",
          "name": "owner",
          "type": "address"
        },
        {
          "internalType": "uint8",
          "name": "ownerScore",
          "type": "uint8"
        }
      ],
      "name": "mint",
      "outputs": [],
      "stateMutability": "nonpayable",
      "type": "function"
    },
    {
      "inputs": [],
      "name": "name",
      "outputs": [
        {
          "internalType": "string",
          "name": "",
          "type": "string"
        }
      ],
      "stateMutability": "view",
      "type": "function"
    },
    {
      "inputs": [
        {
          "internalType": "uint256",
          "name": "tokenId",
          "type": "uint256"
        }
      ],
      "name": "ownerOf",
      "outputs": [
        {
          "internalType": "address",
          "name": "",
          "type": "address"
        }
      ],
      "stateMutability": "view",
      "type": "function"
    },
    {
      "inputs": [
        {
          "internalType": "bytes32",
          "name": "role",
          "type": "bytes32"
        },
        {
          "internalType": "address",
          "name": "callerConfirmation",
          "type": "address"
        }
      ],
      "name": "renounceRole",
      "outputs": [],
      "stateMutability": "nonpayable",
      "type": "function"
    },
    {
      "inputs": [
        {
          "internalType": "uint256",
          "name": "tokenId",
          "type": "uint256"
        }
      ],
      "name": "reputationOf",
      "outputs": [
        {
          "internalType": "bytes32",
          "name": "agreementId",
          "type": "bytes32"
        },
        {
          "internalType": "bool",
          "name": "isOwnerRole",
          "type": "bool"
        },
        {
          "internalType": "uint8",
          "name": "score",
          "type": "uint8"
        },
        {
          "internalType": "uint256",
          "name": "mintedAt",
          "type": "uint256"
        }
      ],
      "stateMutability": "view",
      "type": "function"
    },
    {
      "inputs": [
        {
          "internalType": "bytes32",
          "name": "role",
          "type": "bytes32"
        },
        {
          "internalType": "address",
          "name": "account",
          "type": "address"
        }
      ],
      "name": "revokeRole",
      "outputs": [],
      "stateMutability": "nonpayable",
      "type": "function"
    },
    {
      "inputs": [
        {
          "internalType": "address",
          "name": "from",
          "type": "address"
        },
        {
          "internalType": "address",
          "name": "to",
          "type": "address"
        },
        {
          "internalType": "uint256",
          "name": "tokenId",
          "type": "uint256"
        }
      ],
      "name": "safeTransferFrom",
      "outputs": [],
      "stateMutability": "nonpayable",
      "type": "function"
    },
    {
      "inputs": [
        {
          "internalType": "address",
          "name": "from",
          "type": "address"
        },
        {
          "internalType": "address",
          "name": "to",
          "type": "address"
        },
        {
          "internalType": "uint256",
          "name": "tokenId",
          "type": "uint256"
        },
        {
          "internalType": "bytes",
          "name": "data",
          "type": "bytes"
        }
      ],
      "name": "safeTransferFrom",
      "outputs": [],
      "stateMutability": "nonpayable",
      "type": "function"
    },
    {
      "inputs": [
        {
          "internalType": "address",
          "name": "user",
          "type": "address"
        }
      ],
      "name": "scoreOf",
      "outputs": [
        {
          "internalType": "uint256",
          "name": "average",
          "type": "uint256"
        },
        {
          "internalType": "uint256",
          "name": "count",
          "type": "uint256"
        }
      ],
      "stateMutability": "view",
      "type": "function"
    },
    {
      "inputs": [
        {
          "internalType": "address",
          "name": "operator",
          "type": "address"
        },
        {
          "internalType": "bool",
          "name": "approved",
          "type": "bool"
        }
      ],
      "name": "setApprovalForAll",
      "outputs": [],
      "stateMutability": "nonpayable",
      "type": "function"
    },
    {
      "inputs": [
        {
          "internalType": "bytes4",
          "name": "interfaceId",
          "type": "bytes4"
        }
      ],
      "name": "supportsInterface",
      "outputs": [
        {
          "internalType": "bool",
          "name": "",
          "type": "bool"
        }
      ],
      "stateMutability": "view",
      "type": "function"
    },
    {
      "inputs": [],
      "name": "symbol",
      "outputs": [
        {
          "internalType": "string",
          "name": "",
          "type": "string"
        }
      ],
      "stateMutability": "view",
      "type": "function"
    },
    {
      "inputs": [
        {
          "internalType": "uint256",
          "name": "tokenId",
          "type": "uint256"
        }
      ],
      "name": "tokenURI",
      "outputs": [
        {
          "internalType": "string",
          "name": "",
          "type": "string"
        }
      ],
      "stateMutability": "view",
      "type": "function"
    },
    {
      "inputs": [
        {
          "internalType": "address",
          "name": "owner",
          "type": "address"
        },
        {
          "internalType": "uint256",
          "name": "",
          "type": "uint256"
        }
      ],
      "name": "tokensByOwner",
      "outputs": [
        {
          "internalType": "uint256",
          "name": "",
          "type": "uint256"
        }
      ],
      "stateMutability": "view",
      "type": "function"
    },
    {
      "inputs": [
        {
          "internalType": "address",
          "name": "from",
          "type": "address"
        },
        {
          "internalType": "address",
          "name": "to",
          "type": "address"
        },
        {
          "internalType": "uint256",
          "name": "tokenId",
          "type": "uint256"
        }
      ],
      "name": "transferFrom",
      "outputs": [],
      "stateMutability": "nonpayable",
      "type": "function"
    }
  ],
  "bytecode": "0x608060405234801562000010575f80fd5b5060405162001ce538038062001ce58339810160408190526200003391620001b9565b6040518060400160405280601481526020017f54727573744e6573742052657075746174696f6e000000000000000000000000815250604051806040016040528060058152602001640544e5245560dc1b815250815f90816200009791906200028d565b506001620000a682826200028d565b50620000b791505f905083620000ed565b50620000e47f97667070c54ef182b0f5858b034beac1b6f3089aa2d3188bb1e8929f4fa9b92982620000ed565b50505062000359565b5f8281526006602090815260408083206001600160a01b038516845290915281205460ff1662000194575f8381526006602090815260408083206001600160a01b03861684529091529020805460ff191660011790556200014b3390565b6001600160a01b0316826001600160a01b0316847f2f8788117e7eff1d82e926ec794901d17c78024a50270940304540a733656f0d60405160405180910390a450600162000197565b505f5b92915050565b80516001600160a01b0381168114620001b4575f80fd5b919050565b5f8060408385031215620001cb575f80fd5b620001d6836200019d565b9150620001e6602084016200019d565b90509250929050565b634e487b7160e01b5f52604160045260245ffd5b600181811c908216806200021857607f821691505b6020821081036200023757634e487b7160e01b5f52602260045260245ffd5b50919050565b601f8211156200028857805f5260205f20601f840160051c81016020851015620002645750805b601f840160051c820191505b8181101562000285575f815560010162000270565b50505b505050565b81516001600160401b03811115620002a957620002a9620001ef565b620002c181620002ba845462000203565b846200023d565b602080601f831160018114620002f7575f8415620002df5750858301515b5f19600386901b1c1916600185901b17855562000351565b5f85815260208120601f198616915b82811015620003275788860151825594840194600190910190840162000306565b50858210156200034557878501515f19600388901b60f8161c191681555b505060018460011b0185555b505050505050565b61197e80620003675f395ff3fe608060405234801561000f575f80fd5b506004361061016d575f3560e01c8063653db54a116100d9578063adf94cca11610093578063c87b56dd1161006e578063c87b56dd1461039e578063d547741f146103b1578063e985e9c5146103c4578063f5b541a6146103d7575f80fd5b8063adf94cca14610313578063b45a3c0e14610377578063b88d4fde1461038b575f80fd5b8063653db54a146102b857806370a08231146102cb57806391d14854146102de57806395d89b41146102f1578063a217fddf146102f9578063a22cb46514610300575f80fd5b8063248a9ca31161012a578063248a9ca3146102295780632f2ff15d1461025957806336568abe1461026c57806342842e0e1461027f5780635abff30e146102925780636352211e146102a5575f80fd5b806301ffc9a71461017157806306fdde0314610199578063081812fc146101ae578063095ea7b3146101d9578063133af456146101ee57806323b872dd14610216575b5f80fd5b61018461017f3660046114fe565b6103fe565b60405190151581526020015b60405180910390f35b6101a1610428565b6040516101909190611566565b6101c16101bc366004611578565b6104b7565b6040516001600160a01b039091168152602001610190565b6101ec6101e73660046115aa565b6104de565b005b6102016101fc3660046115d2565b6104ed565b60408051928352602083019190915201610190565b6101ec6102243660046115eb565b610594565b61024b610237366004611578565b5f9081526006602052604090206001015490565b604051908152602001610190565b6101ec610267366004611624565b610622565b6101ec61027a366004611624565b610646565b6101ec61028d3660046115eb565b61067e565b6101ec6102a036600461165e565b610698565b6101c16102b3366004611578565b610a2b565b61024b6102c63660046115aa565b610a35565b61024b6102d93660046115d2565b610a60565b6101846102ec366004611624565b610aa5565b6101a1610acf565b61024b5f81565b6101ec61030e3660046116b8565b610ade565b61034e610321366004611578565b60086020525f9081526040902080546001820154600290920154909160ff80821692610100909204169084565b6040516101909493929190938452911515602084015260ff166040830152606082015260800190565b610184610385366004611578565b50600190565b6101ec610399366004611705565b610ae9565b6101a16103ac366004611578565b610b01565b6101ec6103bf366004611624565b610b72565b6101846103d23660046117da565b610b96565b61024b7f97667070c54ef182b0f5858b034beac1b6f3089aa2d3188bb1e8929f4fa9b92981565b5f6001600160e01b03198216635a2d1e0760e11b1480610422575061042282610bc3565b92915050565b60605f805461043690611802565b80601f016020809104026020016040519081016040528092919081815260200182805461046290611802565b80156104ad5780601f10610484576101008083540402835291602001916104ad565b820191905f5260205f20905b81548152906001019060200180831161049057829003601f168201915b5050505050905090565b5f6104c182610be7565b505f828152600460205260409020546001600160a01b0316610422565b6104e9828233610c1f565b5050565b6001600160a01b0381165f90815260096020526040812080549081830361051957505f93849350915050565b5f805b838110156105745760085f8483815481106105395761053961183a565b5f918252602080832090910154835282019290925260400190206001015461056a9060ff6101009091041683611862565b915060010161051c565b508261058182600a611875565b61058b919061188c565b93505050915091565b6001600160a01b0382166105c257604051633250574960e11b81525f60048201526024015b60405180910390fd5b5f6105ce838333610c2c565b9050836001600160a01b0316816001600160a01b03161461061c576040516364283d7b60e01b81526001600160a01b03808616600483015260248201849052821660448201526064016105b9565b50505050565b5f8281526006602052604090206001015461063c81610cb3565b61061c8383610cc0565b6001600160a01b038116331461066f5760405163334bd91960e11b815260040160405180910390fd5b6106798282610d51565b505050565b61067983838360405180602001604052805f815250610ae9565b7f97667070c54ef182b0f5858b034beac1b6f3089aa2d3188bb1e8929f4fa9b9296106c281610cb3565b60018460ff16101580156106da575060058460ff1611155b6107265760405162461bcd60e51b815260206004820152601960248201527f5342543a20696e76616c69642074656e616e742073636f72650000000000000060448201526064016105b9565b60018260ff161015801561073e575060058260ff1611155b61078a5760405162461bcd60e51b815260206004820152601860248201527f5342543a20696e76616c6964206f776e65722073636f7265000000000000000060448201526064016105b9565b5f60075f8154610799906118ab565b91905081905590505f60075f81546107b0906118ab565b918290555090506107c18783610dbc565b6107cb8582610dbc565b60405180608001604052808981526020015f151581526020018760ff1681526020014281525060085f8481526020019081526020015f205f820151815f01556020820151816001015f6101000a81548160ff02191690831515021790555060408201518160010160016101000a81548160ff021916908360ff1602179055506060820151816002015590505060405180608001604052808981526020016001151581526020018560ff1681526020014281525060085f8381526020019081526020015f205f820151815f01556020820151816001015f6101000a81548160ff02191690831515021790555060408201518160010160016101000a81548160ff021916908360ff1602179055506060820151816002015590505060095f886001600160a01b03166001600160a01b031681526020019081526020015f2082908060018154018082558091505060019003905f5260205f20015f909190919091505560095f866001600160a01b03166001600160a01b031681526020019081526020015f2081908060018154018082558091505060019003905f5260205f20015f9091909190915055817f032bc66be43dbccb7487781d168eb7bda224628a3b2c3388bdf69b532a3a161160405160405180910390a260405181907f032bc66be43dbccb7487781d168eb7bda224628a3b2c3388bdf69b532a3a1611905f90a2604080516001600160a01b03898116825260ff89811660208401529088168284015286166060820152905189917f2df74e62ba61a65ae04ba20113830586865718e8450987a506f0a5cdfdd5d682919081900360800190a25050505050505050565b5f61042282610be7565b6009602052815f5260405f208181548110610a4e575f80fd5b905f5260205f20015f91509150505481565b5f6001600160a01b038216610a8a576040516322718ad960e21b81525f60048201526024016105b9565b506001600160a01b03165f9081526003602052604090205490565b5f9182526006602090815260408084206001600160a01b0393909316845291905290205460ff1690565b60606001805461043690611802565b6104e9338383610dd5565b610af4848484610594565b61061c3385858585610e9c565b6060610b0c82610be7565b505f610b2260408051602081019091525f815290565b90505f815111610b405760405180602001604052805f815250610b6b565b80610b4a84610fc4565b604051602001610b5b9291906118c3565b6040516020818303038152906040525b9392505050565b5f82815260066020526040902060010154610b8c81610cb3565b61061c8383610d51565b6001600160a01b039182165f90815260056020908152604080832093909416825291909152205460ff1690565b5f6001600160e01b03198216637965db0b60e01b1480610422575061042282611054565b5f818152600260205260408120546001600160a01b03168061042257604051637e27328960e01b8152600481018490526024016105b9565b61067983838360016110a3565b5f828152600260205260408120546001600160a01b03168015610c9f5760405162461bcd60e51b815260206004820152602560248201527f5342543a20736f756c626f756e64202d207472616e73666572206e6f7420616c6044820152641b1bddd95960da1b60648201526084016105b9565b610caa8585856111a7565b95945050505050565b610cbd8133611299565b50565b5f610ccb8383610aa5565b610d4a575f8381526006602090815260408083206001600160a01b03861684529091529020805460ff19166001179055610d023390565b6001600160a01b0316826001600160a01b0316847f2f8788117e7eff1d82e926ec794901d17c78024a50270940304540a733656f0d60405160405180910390a4506001610422565b505f610422565b5f610d5c8383610aa5565b15610d4a575f8381526006602090815260408083206001600160a01b0386168085529252808320805460ff1916905551339286917ff6391f5c32d9c69d2a47ea670b442974b53935d1edc7fd64eb21e047a839171b9190a4506001610422565b6104e9828260405180602001604052805f8152506112d2565b6001600160a01b038316610dfe5760405163a9fbf51f60e01b81525f60048201526024016105b9565b6001600160a01b038216610e3057604051630b61174360e31b81526001600160a01b03831660048201526024016105b9565b6001600160a01b038381165f81815260056020908152604080832094871680845294825291829020805460ff191686151590811790915591519182527f17307eab39ab6107e8899845ad3d59bd9653f200f220920489ca2b5937696c31910160405180910390a3505050565b6001600160a01b0383163b15610fbd57604051630a85bd0160e11b81526001600160a01b0384169063150b7a0290610ede9088908890879087906004016118f1565b6020604051808303815f875af1925050508015610f18575060408051601f3d908101601f19168201909252610f159181019061192d565b60015b610f7f573d808015610f45576040519150601f19603f3d011682016040523d82523d5f602084013e610f4a565b606091505b5080515f03610f7757604051633250574960e11b81526001600160a01b03851660048201526024016105b9565b805160208201fd5b6001600160e01b03198116630a85bd0160e11b14610fbb57604051633250574960e11b81526001600160a01b03851660048201526024016105b9565b505b5050505050565b60605f610fd0836112e9565b60010190505f8167ffffffffffffffff811115610fef57610fef6116f1565b6040519080825280601f01601f191660200182016040528015611019576020820181803683370190505b5090508181016020015b5f19016f181899199a1a9b1b9c1cb0b131b232b360811b600a86061a8153600a850494508461102357509392505050565b5f6001600160e01b031982166380ac58cd60e01b148061108457506001600160e01b03198216635b5e139f60e01b145b8061042257506301ffc9a760e01b6001600160e01b0319831614610422565b80806110b757506001600160a01b03821615155b15611178575f6110c684610be7565b90506001600160a01b038316158015906110f25750826001600160a01b0316816001600160a01b031614155b801561110557506111038184610b96565b155b1561112e5760405163a9fbf51f60e01b81526001600160a01b03841660048201526024016105b9565b81156111765783856001600160a01b0316826001600160a01b03167f8c5be1e5ebec7d5bd14f71427d1e84f3dd0314c0f7b2291e5b200ac8c7c3b92560405160405180910390a45b505b50505f90815260046020526040902080546001600160a01b0319166001600160a01b0392909216919091179055565b5f828152600260205260408120546001600160a01b03908116908316156111d3576111d38184866113c0565b6001600160a01b0381161561120d576111ee5f855f806110a3565b6001600160a01b0381165f90815260036020526040902080545f190190555b6001600160a01b0385161561123b576001600160a01b0385165f908152600360205260409020805460010190555b5f8481526002602052604080822080546001600160a01b0319166001600160a01b0389811691821790925591518793918516917fddf252ad1be2c89b69c2b068fc378daa952ba7f163c4a11628f55a4df523b3ef91a4949350505050565b6112a38282610aa5565b6104e95760405163e2517d3f60e01b81526001600160a01b0382166004820152602481018390526044016105b9565b6112dc8383611424565b610679335f858585610e9c565b5f8072184f03e93ff9f4daa797ed6e38ed64bf6a1f0160401b83106113275772184f03e93ff9f4daa797ed6e38ed64bf6a1f0160401b830492506040015b6d04ee2d6d415b85acef81000000008310611353576d04ee2d6d415b85acef8100000000830492506020015b662386f26fc10000831061137157662386f26fc10000830492506010015b6305f5e1008310611389576305f5e100830492506008015b612710831061139d57612710830492506004015b606483106113af576064830492506002015b600a83106104225760010192915050565b6113cb838383611485565b610679576001600160a01b0383166113f957604051637e27328960e01b8152600481018290526024016105b9565b60405163177e802f60e01b81526001600160a01b0383166004820152602481018290526044016105b9565b6001600160a01b03821661144d57604051633250574960e11b81525f60048201526024016105b9565b5f61145983835f610c2c565b90506001600160a01b03811615610679576040516339e3563760e11b81525f60048201526024016105b9565b5f6001600160a01b038316158015906114e15750826001600160a01b0316846001600160a01b031614806114be57506114be8484610b96565b806114e157505f828152600460205260409020546001600160a01b038481169116145b949350505050565b6001600160e01b031981168114610cbd575f80fd5b5f6020828403121561150e575f80fd5b8135610b6b816114e9565b5f5b8381101561153357818101518382015260200161151b565b50505f910152565b5f8151808452611552816020860160208601611519565b601f01601f19169290920160200192915050565b602081525f610b6b602083018461153b565b5f60208284031215611588575f80fd5b5035919050565b80356001600160a01b03811681146115a5575f80fd5b919050565b5f80604083850312156115bb575f80fd5b6115c48361158f565b946020939093013593505050565b5f602082840312156115e2575f80fd5b610b6b8261158f565b5f805f606084860312156115fd575f80fd5b6116068461158f565b92506116146020850161158f565b9150604084013590509250925092565b5f8060408385031215611635575f80fd5b823591506116456020840161158f565b90509250929050565b803560ff811681146115a5575f80fd5b5f805f805f60a08688031215611672575f80fd5b853594506116826020870161158f565b93506116906040870161164e565b925061169e6060870161158f565b91506116ac6080870161164e565b90509295509295909350565b5f80604083850312156116c9575f80fd5b6116d28361158f565b9150602083013580151581146116e6575f80fd5b809150509250929050565b634e487b7160e01b5f52604160045260245ffd5b5f805f8060808587031215611718575f80fd5b6117218561158f565b935061172f6020860161158f565b925060408501359150606085013567ffffffffffffffff80821115611752575f80fd5b818701915087601f830112611765575f80fd5b813581811115611777576117776116f1565b604051601f8201601f19908116603f0116810190838211818310171561179f5761179f6116f1565b816040528281528a60208487010111156117b7575f80fd5b826020860160208301375f60208483010152809550505050505092959194509250565b5f80604083850312156117eb575f80fd5b6117f48361158f565b91506116456020840161158f565b600181811c9082168061181657607f821691505b60208210810361183457634e487b7160e01b5f52602260045260245ffd5b50919050565b634e487b7160e01b5f52603260045260245ffd5b634e487b7160e01b5f52601160045260245ffd5b808201808211156104225761042261184e565b80820281158282048414176104225761042261184e565b5f826118a657634e487b7160e01b5f52601260045260245ffd5b500490565b5f600182016118bc576118bc61184e565b5060010190565b5f83516118d4818460208801611519565b8351908301906118e8818360208801611519565b01949350505050565b6001600160a01b03858116825284166020820152604081018390526080606082018190525f906119239083018461153b565b9695505050505050565b5f6020828403121561193d575f80fd5b8151610b6b816114e956fea2646970667358221220dadae8d03fb2f272c30a8ab0024caab431cfd7152b9eabebecb6fd79dc701ae164736f6c63430008180033",
  "linkReferences": {},
  "deployedLinkReferences": {}
}