{
  "_format": "hh-sol-artifact-1",
  "contractName": "AgreementNFT",
  "sourceName": "contracts/AgreementNFT.sol",
  "abi": [
    {
      "inputs": [
        {
          "internalType": "address",
          "name": "admin",
          "type": "address"
        },
        {
          "internalType": "address",
          "name": "operator",
          "type": "address"
        }
      ],
      "stateMutability": "nonpayable",
      "type": "constructor"
    },
    {
      "inputs": [],
      "name": "AccessControlBadConfirmation",
      "type": "error"
    },
    {
      "inputs": [
        {
          "internalType": "address",
          "name": "account",
          "type": "address"
        },
        {
          "internalType": "bytes32",
          "name": "neededRole",
          "type": "bytes32"
        }
      ],
      "name": "AccessControlUnauthorizedAccount",
      "type": "error"
    },
    {
      "inputs": [
        {
          "internalType": "address",
          "name": "sender",
          "type": "address"
        },
        {
          "internalType": "uint256",
          "name": "tokenId",
          "type": "uint256"
        },
        {
          "internalType": "address",
          "name": "owner",
          "type": "address"
        }
      ],
      "name": "ERC721IncorrectOwner",
      "type": "error"
    },
    {
      "inputs": [
        {
          "internalType": "address",
          "name": "operator",
          "type": "address"
        },
        {
          "internalType": "uint256",
          "name": "tokenId",
          "type": "uint256"
        }
      ],
      "name": "ERC721InsufficientApproval",
      "type": "error"
    },
    {
      "inputs": [
        {
          "internalType": "address",
          "name": "approver",
          "type": "address"
        }
      ],
      "name": "ERC721InvalidApprover",
      "type": "error"
    },
    {
      "inputs": [
        {
          "internalType": "address",
          "name": "operator",
          "type": "address"
        }
      ],
      "name": "ERC721InvalidOperator",
      "type": "error"
    },
    {
      "inputs": [
        {
          "internalType": "address",
          "name": "owner",
          "type": "address"
        }
      ],
      "name": "ERC721InvalidOwner",
      "type": "error"
    },
    {
      "inputs": [
        {
          "internalType": "address",
          "name": "receiver",
          "type": "address"
        }
      ],
      "name": "ERC721InvalidReceiver",
      "type": "error"
    },
    {
      "inputs": [
        {
          "internalType": "address",
          "name": "sender",
          "type": "address"
        }
      ],
      "name": "ERC721InvalidSender",
      "type": "error"
    },
    {
      "inputs": [
        {
          "internalType": "uint256",
          "name": "tokenId",
          "type": "uint256"
        }
      ],
      "name": "ERC721NonexistentToken",
      "type": "error"
    },
    {
      "anonymous": false,
      "inputs": [
        {
          "indexed": true,
          "internalType": "bytes32",
          "name": "agreementId",
          "type": "bytes32"
        },
        {
          "indexed": false,
          "internalType": "uint256",
          "name": "tenantTokenId",
          "type": "uint256"
        },
        {
          "indexed": false,
          "internalType": "uint256",
          "name": "ownerTokenId",
          "type": "uint256"
        }
      ],
      "name": "AgreementMinted",
      "type": "event"
    },
    {
      "anonymous": false,
      "inputs": [
        {
          "indexed": true,
          "internalType": "address",
          "name": "owner",
          "type": "address"
        },
        {
          "indexed": true,
          "internalType": "address",
          "name": "approved",
          "type": "address"
        },
        {
          "indexed": true,
          "internalType": "uint256",
          "name": "tokenId",
          "type": "uint256"
        }
      ],
      "name": "Approval",
      "type": "event"
    },
    {
      "anonymous": false,
      "inputs": [
        {
          "indexed": true,
          "internalType": "address",
          "name": "owner",
          "type": "address"
        },
        {
          "indexed": true,
          "internalType": "address",
          "name": "operator",
          "type": "address"
        },
        {
          "indexed": false,
          "internalType": "bool",
          "name": "approved",
          "type": "bool"
        }
      ],
      "name": "ApprovalForAll",
      "type": "event"
    },
    {
      "anonymous": false,
      "inputs": [
        {
          "indexed": true,
          "internalType": "bytes32",
          "name": "role",
          "type": "bytes32"
        },
        {
          "indexed": true,
          "internalType": "bytes32",
          "name": "previousAdminRole",
          "type": "bytes32"
        },
        {
          "indexed": true,
          "internalType": "bytes32",
          "name": "newAdminRole",
          "type": "bytes32"
        }
      ],
      "name": "RoleAdminChanged",
      "type": "event"
    },
    {
      "anonymous": false,
      "inputs": [
        {
          "indexed": true,
          "internalType": "bytes32",
          "name": "role",
          "type": "bytes32"
        },
        {
          "indexed": true,
          "internalType": "address",
          "name": "account",
          "type": "address"
        },
        {
          "indexed": true,
          "internalType": "address",
          "name": "sender",
          "type": "address"
        }
      ],
      "name": "RoleGranted",
      "type": "event"
    },
    {
      "anonymous": false,
      "inputs": [
        {
          "indexed": true,
          "internalType": "bytes32",
          "name": "role",
          "type": "bytes32"
        },
        {
          "indexed": true,
          "internalType": "address",
          "name": "account",
          "type": "address"
        },
        {
          "indexed": true,
          "internalType": "address",
          "name": "sender",
          "type": "address"
        }
      ],
      "name": "RoleRevoked",
      "type": "event"
    },
    {
      "anonymous": false,
      "inputs": [
        {
          "indexed": true,
          "internalType": "address",
          "name": "from",
          "type": "address"
        },
        {
          "indexed": true,
          "internalType": "address",
          "name": "to",
          "type": "address"
        },
        {
          "indexed": true,
          "internalType": "uint256",
          "name": "tokenId",
          "type": "uint256"
        }
      ],
      "name": "Transfer",
      "type": "event"
    },
    {
      "inputs": [],
      "name": "DEFAULT_ADMIN_ROLE",
      "outputs": [
        {
          "internalType": "bytes32",
          "name": "",
          "type": "bytes32"
        }
      ],
      "stateMutability": "view",
      "type": "function"
    },
    {
      "inputs": [],
      "name": "OPERATOR_ROLE",
      "outputs": [
        {
          "internalType": "bytes32",
          "name": "",
          "type": "bytes32"
        }
      ],
      "stateMutability": "view",
      "type": "function"
    },
    {
      "inputs": [
        {
          "internalType": "address",
          "name": "to",
          "type": "address"
        },
        {
          "internalType": "uint256",
          "name": "tokenId",
          "type": "uint256"
        }
      ],
      "name": "approve",
      "outputs": [],
      "stateMutability": "nonpayable",
      "type": "function"
    },
    {
      "inputs": [
        {
          "internalType": "address",
          "name": "owner",
          "type": "address"
        }
      ],
      "name": "balanceOf",
      "outputs": [
        {
          "internalType": "uint256",
          "name": "",
          "type": "uint256"
        }
      ],
      "stateMutability": "view",
      "type": "function"
    },
    {
      "inputs": [
        {
          "internalType": "uint256",
          "name": "tokenId",
          "type": "uint256"
        }
      ],
      "name": "getApproved",
      "outputs": [
        {
          "internalType": "address",
          "name": "",
          "type": "address"
        }
      ],
      "stateMutability": "view",
      "type": "function"
    },
    {
      "inputs": [
        {
          "internalType": "bytes32",
          "name": "role",
          "type": "bytes32"
        }
      ],
      "name": "getRoleAdmin",
      "outputs": [
        {
          "internalType": "bytes32",
          "name": "",
          "type": "bytes32"
        }
      ],
      "stateMutability": "view",
      "type": "function"
    },
    {
      "inputs": [
        {
          "internalType": "bytes32",
          "name": "role",
          "type": "bytes32"
        },
        {
          "internalType": "address",
          "name": "account",
          "type": "address"
        }
      ],
      "name": "grantRole",
      "outputs": [],
      "stateMutability": "nonpayable",
      "type": "function"
    },
    {
      "inputs": [
        {
          "internalType": "bytes32",
          "name": "role",
          "type": "bytes32"
        },
        {
          "internalType": "address",
          "name": "account",
          "type": "address"
        }
      ],
      "name": "hasRole",
      "outputs": [
        {
          "internalType": "bool",
          "name": "",
          "type": "bool"
        }
      ],
      "stateMutability": "view",
      "type": "function"
    },
    {
      "inputs": [
        {
          "internalType": "address",
          "name": "owner",
          "type": "address"
        },
        {
          "internalType": "address",
          "name": "operator",
          "type": "address"
        }
      ],
      "name": "isApprovedForAll",
      "outputs": [
        {
          "internalType": "bool",
          "name": "",
          "type": "bool"
        }
      ],
      "stateMutability": "view",
      "type": "function"
    },
    {
      "inputs": [
        {
          "internalType": "bytes32",
          "name": "agreementId",
          "type": "bytes32"
        },
        {
          "internalType": "address",
          "name": "tenant",
          "type": "address"
        },
        {
          "internalType": "address",
          "name": "owner",
          "type": "address"
        },
        {
          "internalType": "string",
          "name": "metadataURI",
          "type": "string"
        }
      ],
      "name": "mint",
      "outputs": [
        {
          "internalType": "uint256",
          "name": "tenantTokenId",
          "type": "uint256"
        },
        {
          "internalType": "uint256",
          "name": "ownerTokenId",
          "type": "uint256"
        }
      ],
      "stateMutability": "nonpayable",
      "type": "function"
    },
    {
      "inputs": [],
      "name": "name",
      "outputs": [
        {
          "internalType": "string",
          "name": "",
          "type": "string"
        }
      ],
      "stateMutability": "view",
      "type": "function"
    },
    {
      "inputs": [
        {
          "internalType": "uint256",
          "name": "tokenId",
          "type": "uint256"
        }
      ],
      "name": "ownerOf",
      "outputs": [
        {
          "internalType": "address",
          "name": "",
          "type": "address"
        }
      ],
      "stateMutability": "view",
      "type": "function"
    },
    {
      "inputs": [
        {
          "internalType": "bytes32",
          "name": "agreementId",
          "type": "bytes32"
        }
      ],
      "name": "ownerToken",
      "outputs": [
        {
          "internalType": "uint256",
          "name": "",
          "type": "uint256"
        }
      ],
      "stateMutability": "view",
      "type": "function"
    },
    {
      "inputs": [
        {
          "internalType": "bytes32",
          "name": "role",
          "type": "bytes32"
        },
        {
          "internalType": "address",
          "name": "callerConfirmation",
          "type": "address"
        }
      ],
      "name": "renounceRole",
      "outputs": [],
      "stateMutability": "nonpayable",
      "type": "function"
    },
    {
      "inputs": [
        {
          "internalType": "bytes32",
          "name": "role",
          "type": "bytes32"
        },
        {
          "internalType": "address",
          "name": "account",
          "type": "address"
        }
      ],
      "name": "revokeRole",
      "outputs": [],
      "stateMutability": "nonpayable",
      "type": "function"
    },
    {
      "inputs": [
        {
          "internalType": "address",
          "name": "from",
          "type": "address"
        },
        {
          "internalType": "address",
          "name": "to",
          "type": "address"
        },
        {
          "internalType": "uint256",
          "name": "tokenId",
          "type": "uint256"
        }
      ],
      "name": "safeTransferFrom",
      "outputs": [],
      "stateMutability": "nonpayable",
      "type": "function"
    },
    {
      "inputs": [
        {
          "internalType": "address",
          "name": "from",
          "type": "address"
        },
        {
          "internalType": "address",
          "name": "to",
          "type": "address"
        },
        {
          "internalType": "uint256",
          "name": "tokenId",
          "type": "uint256"
        },
        {
          "internalType": "bytes",
          "name": "data",
          "type": "bytes"
        }
      ],
      "name": "safeTransferFrom",
      "outputs": [],
      "stateMutability": "nonpayable",
      "type": "function"
    },
    {
      "inputs": [
        {
          "internalType": "address",
          "name": "operator",
          "type": "address"
        },
        {
          "internalType": "bool",
          "name": "approved",
          "type": "bool"
        }
      ],
      "name": "setApprovalForAll",
      "outputs": [],
      "stateMutability": "nonpayable",
      "type": "function"
    },
    {
      "inputs": [
        {
          "internalType": "bytes4",
          "name": "interfaceId",
          "type": "bytes4"
        }
      ],
      "name": "supportsInterface",
      "outputs": [
        {
          "internalType": "bool",
          "name": "",
          "type": "bool"
        }
      ],
      "stateMutability": "view",
      "type": "function"
    },
    {
      "inputs": [],
      "name": "symbol",
      "outputs": [
        {
          "internalType": "string",
          "name": "",
          "type": "string"
        }
      ],
      "stateMutability": "view",
      "type": "function"
    },
    {
      "inputs": [
        {
          "internalType": "bytes32",
          "name": "agreementId",
          "type": "bytes32"
        }
      ],
      "name": "tenantToken",
      "outputs": [
        {
          "internalType": "uint256",
          "name": "",
          "type": "uint256"
        }
      ],
      "stateMutability": "view",
      "type": "function"
    },
    {
      "inputs": [
        {
          "internalType": "uint256",
          "name": "tokenId",
          "type": "uint256"
        }
      ],
      "name": "tokenAgreement",
      "outputs": [
        {
          "internalType": "bytes32",
          "name": "",
          "type": "bytes32"
        }
      ],
      "stateMutability": "view",
      "type": "function"
    },
    {
      "inputs": [
        {
          "internalType": "uint256",
          "name": "tokenId",
          "type": "uint256"
        }
      ],
      "name": "tokenURI",
      "outputs": [
        {
          "internalType": "string",
          "name": "",
          "type": "string"
        }
      ],
      "stateMutability": "view",
      "type": "function"
    },
    {
      "inputs": [
        {
          "internalType": "address",
          "name": "from",
          "type": "address"
        },
        {
          "internalType": "address",
          "name": "to",
          "type": "address"
        },
        {
          "internalType": "uint256",
          "name": "tokenId",
          "type": "uint256"
        }
      ],
      "name": "transferFrom",
      "outputs": [],
      "stateMutability": "nonpayable",
      "type": "function"
    },
    {
      "inputs": [
        {
          "internalType": "uint256",
          "name": "tokenId",
          "type": "uint256"
        },
        {
          "internalType": "string",
          "name": "newURI",
          "type": "string"
        }
      ],
      "name": "updateMetadata",
      "outputs": [],
      "stateMutability": "nonpayable",
      "type": "function"
    }
  ],
  "bytecode": "0x608060405234801562000010575f80fd5b5060405162001934380380620019348339810160408190526200003391620001b8565b6040518060400160405280601381526020017f54727573744e6573742041677265656d656e7400000000000000000000000000815250604051806040016040528060048152602001631513919560e21b815250815f90816200009691906200028c565b506001620000a582826200028c565b50620000b691505f905083620000ec565b50620000e37f97667070c54ef182b0f5858b034beac1b6f3089aa2d3188bb1e8929f4fa9b92982620000ec565b50505062000358565b5f8281526006602090815260408083206001600160a01b038516845290915281205460ff1662000193575f8381526006602090815260408083206001600160a01b03861684529091529020805460ff191660011790556200014a3390565b6001600160a01b0316826001600160a01b0316847f2f8788117e7eff1d82e926ec794901d17c78024a50270940304540a733656f0d60405160405180910390a450600162000196565b505f5b92915050565b80516001600160a01b0381168114620001b3575f80fd5b919050565b5f8060408385031215620001ca575f80fd5b620001d5836200019c565b9150620001e5602084016200019c565b90509250929050565b634e487b7160e01b5f52604160045260245ffd5b600181811c908216806200021757607f821691505b6020821081036200023657634e487b7160e01b5f52602260045260245ffd5b50919050565b601f8211156200028757805f5260205f20601f840160051c81016020851015620002635750805b601f840160051c820191505b8181101562000284575f81556001016200026f565b50505b505050565b81516001600160401b03811115620002a857620002a8620001ee565b620002c081620002b9845462000202565b846200023c565b602080601f831160018114620002f6575f8415620002de5750858301515b5f19600386901b1c1916600185901b17855562000350565b5f85815260208120601f198616915b82811015620003265788860151825594840194600190910190840162000305565b50858210156200034457878501515f19600388901b60f8161c191681555b505060018460011b0185555b505050505050565b6115ce80620003665f395ff3fe608060405234801561000f575f80fd5b506004361061016d575f3560e01c806370a08231116100d9578063b88d4fde11610093578063d547741f1161006e578063d547741f1461035b578063e985e9c51461036e578063f5b541a614610381578063feb5551f146103a8575f80fd5b8063b88d4fde14610316578063bb2cf2c214610329578063c87b56dd14610348575f80fd5b806370a08231146102af578063900e5e45146102c257806391d14854146102e157806395d89b41146102f4578063a217fddf146102fc578063a22cb46514610303575f80fd5b80632f2ff15d1161012a5780632f2ff15d1461023157806336568abe1461024457806342842e0e1461025757806353c8388e1461026a5780636352211e1461027d5780636dad72a514610290575f80fd5b806301ffc9a71461017157806306fdde0314610199578063081812fc146101ae578063095ea7b3146101d957806323b872dd146101ee578063248a9ca314610201575b5f80fd5b61018461017f366004611059565b6103d0565b60405190151581526020015b60405180910390f35b6101a16103e0565b60405161019091906110be565b6101c16101bc3660046110d0565b61046f565b6040516001600160a01b039091168152602001610190565b6101ec6101e7366004611102565b610496565b005b6101ec6101fc36600461112a565b6104a5565b61022361020f3660046110d0565b5f9081526006602052604090206001015490565b604051908152602001610190565b6101ec61023f366004611163565b610533565b6101ec610252366004611163565b610557565b6101ec61026536600461112a565b61058f565b6101ec6102783660046111d2565b6105a9565b6101c161028b3660046110d0565b6105fc565b61022361029e3660046110d0565b60096020525f908152604090205481565b6102236102bd36600461121a565b610606565b6102236102d03660046110d0565b600a6020525f908152604090205481565b6101846102ef366004611163565b61064b565b6101a1610675565b6102235f81565b6101ec610311366004611233565b610684565b6101ec610324366004611280565b61068f565b6102236103373660046110d0565b60086020525f908152604090205481565b6101a16103563660046110d0565b6106a7565b6101ec610369366004611163565b61074e565b61018461037c366004611355565b610772565b6102237f97667070c54ef182b0f5858b034beac1b6f3089aa2d3188bb1e8929f4fa9b92981565b6103bb6103b636600461137d565b61079f565b60408051928352602083019190915201610190565b5f6103da8261090d565b92915050565b60605f80546103ee906113e7565b80601f016020809104026020016040519081016040528092919081815260200182805461041a906113e7565b80156104655780601f1061043c57610100808354040283529160200191610465565b820191905f5260205f20905b81548152906001019060200180831161044857829003601f168201915b5050505050905090565b5f61047982610931565b505f828152600460205260409020546001600160a01b03166103da565b6104a1828233610969565b5050565b6001600160a01b0382166104d357604051633250574960e11b81525f60048201526024015b60405180910390fd5b5f6104df838333610976565b9050836001600160a01b0316816001600160a01b03161461052d576040516364283d7b60e01b81526001600160a01b03808616600483015260248201849052821660448201526064016104ca565b50505050565b5f8281526006602052604090206001015461054d81610a68565b61052d8383610a75565b6001600160a01b03811633146105805760405163334bd91960e11b815260040160405180910390fd5b61058a8282610b06565b505050565b61058a83838360405180602001604052805f81525061068f565b7f97667070c54ef182b0f5858b034beac1b6f3089aa2d3188bb1e8929f4fa9b9296105d381610a68565b6105dc84610931565b505f848152600b602052604090206105f5838583611463565b5050505050565b5f6103da82610931565b5f6001600160a01b038216610630576040516322718ad960e21b81525f60048201526024016104ca565b506001600160a01b03165f9081526003602052604090205490565b5f9182526006602090815260408084206001600160a01b0393909316845291905290205460ff1690565b6060600180546103ee906113e7565b6104a1338383610b71565b61069a8484846104a5565b61052d3385858585610c38565b60606106b282610931565b505f828152600b6020526040902080546106cb906113e7565b80601f01602080910402602001604051908101604052809291908181526020018280546106f7906113e7565b80156107425780601f1061071957610100808354040283529160200191610742565b820191905f5260205f20905b81548152906001019060200180831161072557829003601f168201915b50505050509050919050565b5f8281526006602052604090206001015461076881610a68565b61052d8383610b06565b6001600160a01b039182165f90815260056020908152604080832093909416825291909152205460ff1690565b5f807f97667070c54ef182b0f5858b034beac1b6f3089aa2d3188bb1e8929f4fa9b9296107cb81610a68565b5f88815260096020526040902054156108265760405162461bcd60e51b815260206004820152601c60248201527f41677265656d656e744e46543a20616c7265616479206d696e7465640000000060448201526064016104ca565b60075f81546108349061151d565b919050819055925060075f815461084a9061151d565b9182905550915061085b8784610d5f565b6108658683610d5f565b5f8381526008602090815260408083208b90558483528083208b90558a835260098252808320869055600a8252808320859055858352600b90915290206108ad858783611463565b505f828152600b602052604090206108c6858783611463565b50604080518481526020810184905289917f3e2d992e73a739e478b9d7d8179d431bc5ff33a967313892b2e305b097bf9567910160405180910390a2509550959350505050565b5f6001600160e01b03198216637965db0b60e01b14806103da57506103da82610d78565b5f818152600260205260408120546001600160a01b0316806103da57604051637e27328960e01b8152600481018490526024016104ca565b61058a8383836001610dc7565b5f828152600260205260408120546001600160a01b03908116908316156109a2576109a2818486610ecb565b6001600160a01b038116156109dc576109bd5f855f80610dc7565b6001600160a01b0381165f90815260036020526040902080545f190190555b6001600160a01b03851615610a0a576001600160a01b0385165f908152600360205260409020805460010190555b5f8481526002602052604080822080546001600160a01b0319166001600160a01b0389811691821790925591518793918516917fddf252ad1be2c89b69c2b068fc378daa952ba7f163c4a11628f55a4df523b3ef91a4949350505050565b610a728133610f2f565b50565b5f610a80838361064b565b610aff575f8381526006602090815260408083206001600160a01b03861684529091529020805460ff19166001179055610ab73390565b6001600160a01b0316826001600160a01b0316847f2f8788117e7eff1d82e926ec794901d17c78024a50270940304540a733656f0d60405160405180910390a45060016103da565b505f6103da565b5f610b11838361064b565b15610aff575f8381526006602090815260408083206001600160a01b0386168085529252808320805460ff1916905551339286917ff6391f5c32d9c69d2a47ea670b442974b53935d1edc7fd64eb21e047a839171b9190a45060016103da565b6001600160a01b038316610b9a5760405163a9fbf51f60e01b81525f60048201526024016104ca565b6001600160a01b038216610bcc57604051630b61174360e31b81526001600160a01b03831660048201526024016104ca565b6001600160a01b038381165f81815260056020908152604080832094871680845294825291829020805460ff191686151590811790915591519182527f17307eab39ab6107e8899845ad3d59bd9653f200f220920489ca2b5937696c31910160405180910390a3505050565b6001600160a01b0383163b156105f557604051630a85bd0160e11b81526001600160a01b0384169063150b7a0290610c7a908890889087908790600401611541565b6020604051808303815f875af1925050508015610cb4575060408051601f3d908101601f19168201909252610cb19181019061157d565b60015b610d1b573d808015610ce1576040519150601f19603f3d011682016040523d82523d5f602084013e610ce6565b606091505b5080515f03610d1357604051633250574960e11b81526001600160a01b03851660048201526024016104ca565b805160208201fd5b6001600160e01b03198116630a85bd0160e11b14610d5757604051633250574960e11b81526001600160a01b03851660048201526024016104ca565b505050505050565b6104a1828260405180602001604052805f815250610f68565b5f6001600160e01b031982166380ac58cd60e01b1480610da857506001600160e01b03198216635b5e139f60e01b145b806103da57506301ffc9a760e01b6001600160e01b03198316146103da565b8080610ddb57506001600160a01b03821615155b15610e9c575f610dea84610931565b90506001600160a01b03831615801590610e165750826001600160a01b0316816001600160a01b031614155b8015610e295750610e278184610772565b155b15610e525760405163a9fbf51f60e01b81526001600160a01b03841660048201526024016104ca565b8115610e9a5783856001600160a01b0316826001600160a01b03167f8c5be1e5ebec7d5bd14f71427d1e84f3dd0314c0f7b2291e5b200ac8c7c3b92560405160405180910390a45b505b50505f90815260046020526040902080546001600160a01b0319166001600160a01b0392909216919091179055565b610ed6838383610f7f565b61058a576001600160a01b038316610f0457604051637e27328960e01b8152600481018290526024016104ca565b60405163177e802f60e01b81526001600160a01b0383166004820152602481018290526044016104ca565b610f39828261064b565b6104a15760405163e2517d3f60e01b81526001600160a01b0382166004820152602481018390526044016104ca565b610f728383610fe3565b61058a335f858585610c38565b5f6001600160a01b03831615801590610fdb5750826001600160a01b0316846001600160a01b03161480610fb85750610fb88484610772565b80610fdb57505f828152600460205260409020546001600160a01b038481169116145b949350505050565b6001600160a01b03821661100c57604051633250574960e11b81525f60048201526024016104ca565b5f61101883835f610976565b90506001600160a01b0381161561058a576040516339e3563760e11b81525f60048201526024016104ca565b6001600160e01b031981168114610a72575f80fd5b5f60208284031215611069575f80fd5b813561107481611044565b9392505050565b5f81518084525f5b8181101561109f57602081850181015186830182015201611083565b505f602082860101526020601f19601f83011685010191505092915050565b602081525f611074602083018461107b565b5f602082840312156110e0575f80fd5b5035919050565b80356001600160a01b03811681146110fd575f80fd5b919050565b5f8060408385031215611113575f80fd5b61111c836110e7565b946020939093013593505050565b5f805f6060848603121561113c575f80fd5b611145846110e7565b9250611153602085016110e7565b9150604084013590509250925092565b5f8060408385031215611174575f80fd5b82359150611184602084016110e7565b90509250929050565b5f8083601f84011261119d575f80fd5b50813567ffffffffffffffff8111156111b4575f80fd5b6020830191508360208285010111156111cb575f80fd5b9250929050565b5f805f604084860312156111e4575f80fd5b83359250602084013567ffffffffffffffff811115611201575f80fd5b61120d8682870161118d565b9497909650939450505050565b5f6020828403121561122a575f80fd5b611074826110e7565b5f8060408385031215611244575f80fd5b61124d836110e7565b915060208301358015158114611261575f80fd5b809150509250929050565b634e487b7160e01b5f52604160045260245ffd5b5f805f8060808587031215611293575f80fd5b61129c856110e7565b93506112aa602086016110e7565b925060408501359150606085013567ffffffffffffffff808211156112cd575f80fd5b818701915087601f8301126112e0575f80fd5b8135818111156112f2576112f261126c565b604051601f8201601f19908116603f0116810190838211818310171561131a5761131a61126c565b816040528281528a6020848701011115611332575f80fd5b826020860160208301375f60208483010152809550505050505092959194509250565b5f8060408385031215611366575f80fd5b61136f836110e7565b9150611184602084016110e7565b5f805f805f60808688031215611391575f80fd5b853594506113a1602087016110e7565b93506113af604087016110e7565b9250606086013567ffffffffffffffff8111156113ca575f80fd5b6113d68882890161118d565b969995985093965092949392505050565b600181811c908216806113fb57607f821691505b60208210810361141957634e487b7160e01b5f52602260045260245ffd5b50919050565b601f82111561058a57805f5260205f20601f840160051c810160208510156114445750805b601f840160051c820191505b818110156105f5575f8155600101611450565b67ffffffffffffffff83111561147b5761147b61126c565b61148f8361148983546113e7565b8361141f565b5f601f8411600181146114c0575f85156114a95750838201355b5f19600387901b1c1916600186901b1783556105f5565b5f83815260208120601f198716915b828110156114ef57868501358255602094850194600190920191016114cf565b508682101561150b575f1960f88860031b161c19848701351681555b505060018560011b0183555050505050565b5f6001820161153a57634e487b7160e01b5f52601160045260245ffd5b5060010190565b6001600160a01b03858116825284166020820152604081018390526080606082018190525f906115739083018461107b565b9695505050505050565b5f6020828403121561158d575f80fd5b81516110748161104456fea26469706673582212203c3f4fb84f1847413ec06895caad37866fc3a64286f3afdfefcd9808cdc2b76b64736f6c63430008180033",
  "linkReferences": {},
  "deployedLinkReferences": {}
}