{
  "_format": "hh-sol-artifact-1",
  "contractName": "EscrowVault",
  "sourceName": "contracts/EscrowVault.sol",
  "abi": [
    {
      "inputs": [
        {
          "internalType": "address",
          "name": "admin",
          "type": "address"
        },
        {
          "internalType": "address",
          "name": "operator",
          "type": "address"
        },
        {
          "internalType": "address",
          "name": "usdcAddress",
          "type": "address"
        }
      ],
      "stateMutability": "nonpayable",
      "type": "constructor"
    },
    {
      "inputs": [],
      "name": "AccessControlBadConfirmation",
      "type": "error"
    },
    {
      "inputs": [
        {
          "internalType": "address",
          "name": "account",
          "type": "address"
        },
        {
          "internalType": "bytes32",
          "name": "neededRole",
          "type": "bytes32"
        }
      ],
      "name": "AccessControlUnauthorizedAccount",
      "type": "error"
    },
    {
      "inputs": [],
      "name": "ReentrancyGuardReentrantCall",
      "type": "error"
    },
    {
      "inputs": [
        {
          "internalType": "address",
          "name": "token",
          "type": "address"
        }
      ],
      "name": "SafeERC20FailedOperation",
      "type": "error"
    },
    {
      "anonymous": false,
      "inputs": [
        {
          "indexed": true,
          "internalType": "bytes32",
          "name": "agreementId",
          "type": "bytes32"
        },
        {
          "indexed": false,
          "internalType": "address",
          "name": "tenant",
          "type": "address"
        },
        {
          "indexed": false,
          "internalType": "uint256",
          "name": "amount",
          "type": "uint256"
        }
      ],
      "name": "Deposited",
      "type": "event"
    },
    {
      "anonymous": false,
      "inputs": [
        {
          "indexed": true,
          "internalType": "bytes32",
          "name": "agreementId",
          "type": "bytes32"
        }
      ],
      "name": "DisputeRaised",
      "type": "event"
    },
    {
      "anonymous": false,
      "inputs": [
        {
          "indexed": true,
          "internalType": "bytes32",
          "name": "agreementId",
          "type": "bytes32"
        },
        {
          "indexed": false,
          "internalType": "uint256",
          "name": "tenantShare",
          "type": "uint256"
        },
        {
          "indexed": false,
          "internalType": "uint256",
          "name": "ownerShare",
          "type": "uint256"
        }
      ],
      "name": "DisputeResolved",
      "type": "event"
    },
    {
      "anonymous": false,
      "inputs": [
        {
          "indexed": true,
          "internalType": "bytes32",
          "name": "agreementId",
          "type": "bytes32"
        },
        {
          "indexed": false,
          "internalType": "address",
          "name": "tenant",
          "type": "address"
        },
        {
          "indexed": false,
          "internalType": "uint256",
          "name": "amount",
          "type": "uint256"
        }
      ],
      "name": "EmergencyRefunded",
      "type": "event"
    },
    {
      "anonymous": false,
      "inputs": [
        {
          "indexed": true,
          "internalType": "bytes32",
          "name": "agreementId",
          "type": "bytes32"
        },
        {
          "indexed": false,
          "internalType": "address",
          "name": "owner",
          "type": "address"
        },
        {
          "indexed": false,
          "internalType": "uint256",
          "name": "tenantReturn",
          "type": "uint256"
        },
        {
          "indexed": false,
          "internalType": "uint256",
          "name": "deduction",
          "type": "uint256"
        }
      ],
      "name": "Released",
      "type": "event"
    },
    {
      "anonymous": false,
      "inputs": [
        {
          "indexed": true,
          "internalType": "bytes32",
          "name": "role",
          "type": "bytes32"
        },
        {
          "indexed": true,
          "internalType": "bytes32",
          "name": "previousAdminRole",
          "type": "bytes32"
        },
        {
          "indexed": true,
          "internalType": "bytes32",
          "name": "newAdminRole",
          "type": "bytes32"
        }
      ],
      "name": "RoleAdminChanged",
      "type": "event"
    },
    {
      "anonymous": false,
      "inputs": [
        {
          "indexed": true,
          "internalType": "bytes32",
          "name": "role",
          "type": "bytes32"
        },
        {
          "indexed": true,
          "internalType": "address",
          "name": "account",
          "type": "address"
        },
        {
          "indexed": true,
          "internalType": "address",
          "name": "sender",
          "type": "address"
        }
      ],
      "name": "RoleGranted",
      "type": "event"
    },
    {
      "anonymous": false,
      "inputs": [
        {
          "indexed": true,
          "internalType": "bytes32",
          "name": "role",
          "type": "bytes32"
        },
        {
          "indexed": true,
          "internalType": "address",
          "name": "account",
          "type": "address"
        },
        {
          "indexed": true,
          "internalType": "address",
          "name": "sender",
          "type": "address"
        }
      ],
      "name": "RoleRevoked",
      "type": "event"
    },
    {
      "inputs": [],
      "name": "ADMIN_ROLE",
      "outputs": [
        {
          "internalType": "bytes32",
          "name": "",
          "type": "bytes32"
        }
      ],
      "stateMutability": "view",
      "type": "function"
    },
    {
      "inputs": [],
      "name": "DEFAULT_ADMIN_ROLE",
      "outputs": [
        {
          "internalType": "bytes32",
          "name": "",
          "type": "bytes32"
        }
      ],
      "stateMutability": "view",
      "type": "function"
    },
    {
      "inputs": [],
      "name": "OPERATOR_ROLE",
      "outputs": [
        {
          "internalType": "bytes32",
          "name": "",
          "type": "bytes32"
        }
      ],
      "stateMutability": "view",
      "type": "function"
    },
    {
      "inputs": [
        {
          "internalType": "bytes32",
          "name": "agreementId",
          "type": "bytes32"
        },
        {
          "internalType": "address",
          "name": "tenant",
          "type": "address"
        },
        {
          "internalType": "address",
          "name": "owner",
          "type": "address"
        },
        {
          "internalType": "uint256",
          "name": "usdcAmount",
          "type": "uint256"
        }
      ],
      "name": "deposit",
      "outputs": [],
      "stateMutability": "nonpayable",
      "type": "function"
    },
    {
      "inputs": [
        {
          "internalType": "bytes32",
          "name": "agreementId",
          "type": "bytes32"
        }
      ],
      "name": "emergencyRefund",
      "outputs": [],
      "stateMutability": "nonpayable",
      "type": "function"
    },
    {
      "inputs": [
        {
          "internalType": "bytes32",
          "name": "agreementId",
          "type": "bytes32"
        }
      ],
      "name": "escrows",
      "outputs": [
        {
          "internalType": "address",
          "name": "tenant",
          "type": "address"
        },
        {
          "internalType": "address",
          "name": "owner",
          "type": "address"
        },
        {
          "internalType": "uint256",
          "name": "amount",
          "type": "uint256"
        },
        {
          "internalType": "enum EscrowStatus",
          "name": "status",
          "type": "uint8"
        },
        {
          "internalType": "uint256",
          "name": "depositedAt",
          "type": "uint256"
        }
      ],
      "stateMutability": "view",
      "type": "function"
    },
    {
      "inputs": [
        {
          "internalType": "bytes32",
          "name": "role",
          "type": "bytes32"
        }
      ],
      "name": "getRoleAdmin",
      "outputs": [
        {
          "internalType": "bytes32",
          "name": "",
          "type": "bytes32"
        }
      ],
      "stateMutability": "view",
      "type": "function"
    },
    {
      "inputs": [
        {
          "internalType": "bytes32",
          "name": "role",
          "type": "bytes32"
        },
        {
          "internalType": "address",
          "name": "account",
          "type": "address"
        }
      ],
      "name": "grantRole",
      "outputs": [],
      "stateMutability": "nonpayable",
      "type": "function"
    },
    {
      "inputs": [
        {
          "internalType": "bytes32",
          "name": "role",
          "type": "bytes32"
        },
        {
          "internalType": "address",
          "name": "account",
          "type": "address"
        }
      ],
      "name": "hasRole",
      "outputs": [
        {
          "internalType": "bool",
          "name": "",
          "type": "bool"
        }
      ],
      "stateMutability": "view",
      "type": "function"
    },
    {
      "inputs": [
        {
          "internalType": "bytes32",
          "name": "agreementId",
          "type": "bytes32"
        }
      ],
      "name": "raiseDispute",
      "outputs": [],
      "stateMutability": "nonpayable",
      "type": "function"
    },
    {
      "inputs": [
        {
          "internalType": "bytes32",
          "name": "agreementId",
          "type": "bytes32"
        },
        {
          "internalType": "uint256",
          "name": "deductionAmount",
          "type": "uint256"
        }
      ],
      "name": "release",
      "outputs": [],
      "stateMutability": "nonpayable",
      "type": "function"
    },
    {
      "inputs": [
        {
          "internalType": "bytes32",
          "name": "role",
          "type": "bytes32"
        },
        {
          "internalType": "address",
          "name": "callerConfirmation",
          "type": "address"
        }
      ],
      "name": "renounceRole",
      "outputs": [],
      "stateMutability": "nonpayable",
      "type": "function"
    },
    {
      "inputs": [
        {
          "internalType": "bytes32",
          "name": "agreementId",
          "type": "bytes32"
        },
        {
          "internalType": "uint256",
          "name": "tenantShare",
          "type": "uint256"
        },
        {
          "internalType": "uint256",
          "name": "ownerShare",
          "type": "uint256"
        }
      ],
      "name": "resolveDispute",
      "outputs": [],
      "stateMutability": "nonpayable",
      "type": "function"
    },
    {
      "inputs": [
        {
          "internalType": "bytes32",
          "name": "role",
          "type": "bytes32"
        },
        {
          "internalType": "address",
          "name": "account",
          "type": "address"
        }
      ],
      "name": "revokeRole",
      "outputs": [],
      "stateMutability": "nonpayable",
      "type": "function"
    },
    {
      "inputs": [
        {
          "internalType": "bytes4",
          "name": "interfaceId",
          "type": "bytes4"
        }
      ],
      "name": "supportsInterface",
      "outputs": [
        {
          "internalType": "bool",
          "name": "",
          "type": "bool"
        }
      ],
      "stateMutability": "view",
      "type": "function"
    },
    {
      "inputs": [],
      "name": "usdc",
      "outputs": [
        {
          "internalType": "contract IERC20",
          "name": "",
          "type": "address"
        }
      ],
      "stateMutability": "view",
      "type": "function"
    }
  ],
  "bytecode": "0x60a060405234801562000010575f80fd5b50604051620013363803806200133683398101604081905262000033916200019b565b60017f9b779b17422d0df92223018b32b4d1fa46e071723d6817e2486d003becc55f0055620000635f84620000d3565b50620000907fa49807205ce4d355092ef5a8a18f56e8913cf4a201fbe287825b095693c2177584620000d3565b50620000bd7f97667070c54ef182b0f5858b034beac1b6f3089aa2d3188bb1e8929f4fa9b92983620000d3565b506001600160a01b031660805250620001e29050565b5f828152602081815260408083206001600160a01b038516845290915281205460ff1662000176575f838152602081815260408083206001600160a01b03861684529091529020805460ff191660011790556200012d3390565b6001600160a01b0316826001600160a01b0316847f2f8788117e7eff1d82e926ec794901d17c78024a50270940304540a733656f0d60405160405180910390a450600162000179565b505f5b92915050565b80516001600160a01b038116811462000196575f80fd5b919050565b5f805f60608486031215620001ae575f80fd5b620001b9846200017f565b9250620001c9602085016200017f565b9150620001d9604085016200017f565b90509250925092565b608051611111620002255f395f81816101e4015281816104a3015281816104e5015281816106b5015281816106f7015281816108d00152610aeb01526111115ff3fe608060405234801561000f575f80fd5b50600436106100fb575f3560e01c806391d1485411610093578063d92e0af211610063578063d92e0af214610298578063e14f5b7d146102ab578063e5eb9584146102be578063f5b541a6146102d1575f80fd5b806391d1485414610258578063a217fddf1461026b578063b75f186114610272578063d547741f14610285575f80fd5b806336568abe116100ce57806336568abe146101cc5780633e413bee146101df57806366afd8ef1461021e57806375b238fc14610231575f80fd5b806301ffc9a7146100ff578063248a9ca3146101275780632d83549c146101575780632f2ff15d146101b7575b5f80fd5b61011261010d366004610eeb565b6102e5565b60405190151581526020015b60405180910390f35b610149610135366004610f19565b5f9081526020819052604090206001015490565b60405190815260200161011e565b6101a6610165366004610f19565b600160208190525f9182526040909120805491810154600282015460038301546004909301546001600160a01b039485169490921692909160ff9091169085565b60405161011e959493929190610f44565b6101ca6101c5366004610fad565b61031b565b005b6101ca6101da366004610fad565b610345565b6102067f000000000000000000000000000000000000000000000000000000000000000081565b6040516001600160a01b03909116815260200161011e565b6101ca61022c366004610fd7565b61037d565b6101497fa49807205ce4d355092ef5a8a18f56e8913cf4a201fbe287825b095693c2177581565b610112610266366004610fad565b610577565b6101495f81565b6101ca610280366004610ff7565b61059f565b6101ca610293366004610fad565b610772565b6101ca6102a6366004610f19565b610796565b6101ca6102b9366004610f19565b610958565b6101ca6102cc366004611020565b610a19565b6101495f8051602061109c83398151915281565b5f6001600160e01b03198216637965db0b60e01b148061031557506301ffc9a760e01b6001600160e01b03198316145b92915050565b5f8281526020819052604090206001015461033581610c27565b61033f8383610c34565b50505050565b6001600160a01b038116331461036e5760405163334bd91960e11b815260040160405180910390fd5b6103788282610cc3565b505050565b5f8051602061109c83398151915261039481610c27565b61039c610d2c565b5f83815260016020819052604090912090600382015460ff1660048111156103c6576103c6610f30565b1461040d5760405162461bcd60e51b8152602060048201526012602482015271457363726f773a206e6f742061637469766560701b60448201526064015b60405180910390fd5b806002015483111561046b5760405162461bcd60e51b815260206004820152602160248201527f457363726f773a20646564756374696f6e2065786365656473206465706f73696044820152601d60fa1b6064820152608401610404565b5f83826002015461047c9190611075565b60038301805460ff19166002179055905080156104cc5781546104cc906001600160a01b037f00000000000000000000000000000000000000000000000000000000000000008116911683610d47565b831561050e57600182015461050e906001600160a01b037f00000000000000000000000000000000000000000000000000000000000000008116911686610d47565b6001820154604080516001600160a01b03909216825260208201839052810185905285907fbaa21fb6000fbb6d014fac9cd1b0726799e6f352a967157a59f4b2da8ef322119060600160405180910390a2505061037860015f805160206110bc83398151915255565b5f918252602082815260408084206001600160a01b0393909316845291905290205460ff1690565b5f8051602061109c8339815191526105b681610c27565b6105be610d2c565b5f8481526001602052604090206004600382015460ff1660048111156105e6576105e6610f30565b1461062a5760405162461bcd60e51b8152602060048201526014602482015273115cd8dc9bddce881b9bdd08191a5cdc1d5d195960621b6044820152606401610404565b60028101546106398486611088565b146106905760405162461bcd60e51b815260206004820152602160248201527f457363726f773a20736861726573206d75737420657175616c206465706f73696044820152601d60fa1b6064820152608401610404565b60038101805460ff1916600217905583156106de5780546106de906001600160a01b037f00000000000000000000000000000000000000000000000000000000000000008116911686610d47565b8215610720576001810154610720906001600160a01b037f00000000000000000000000000000000000000000000000000000000000000008116911685610d47565b604080518581526020810185905286917f58a2558343c2558557b34020fdd42da40f54056195b7744918f27e2e19adcc12910160405180910390a25061033f60015f805160206110bc83398151915255565b5f8281526020819052604090206001015461078c81610c27565b61033f8383610cc3565b7fa49807205ce4d355092ef5a8a18f56e8913cf4a201fbe287825b095693c217756107c081610c27565b6107c8610d2c565b5f828152600160205260409020600281015461081a5760405162461bcd60e51b8152602060048201526011602482015270115cd8dc9bddce881b9bdd08199bdd5b99607a1b6044820152606401610404565b6002600382015460ff16600481111561083557610835610f30565b1415801561085b575060038082015460ff16600481111561085857610858610f30565b14155b6108a75760405162461bcd60e51b815260206004820152601760248201527f457363726f773a20616c726561647920736574746c65640000000000000000006044820152606401610404565b600281015481546003808401805460ff191690911790556001600160a01b03908116906108f7907f0000000000000000000000000000000000000000000000000000000000000000168284610d47565b604080516001600160a01b03831681526020810184905286917fc9c8b20cf48c0a9f890b899540e589b0e554196d596db6c7f2287dd713b740d0910160405180910390a250505061095460015f805160206110bc83398151915255565b5050565b5f8051602061109c83398151915261096f81610c27565b5f82815260016020819052604090912090600382015460ff16600481111561099957610999610f30565b146109db5760405162461bcd60e51b8152602060048201526012602482015271457363726f773a206e6f742061637469766560701b6044820152606401610404565b60038101805460ff1916600417905560405183907f384768a28d40bb1ee9c7940dfdd5b551453a3e1c5cbd958a695d82dc8e5c326a905f90a2505050565b5f8051602061109c833981519152610a3081610c27565b610a38610d2c565b5f8581526001602052604090206002015415610a8f5760405162461bcd60e51b8152602060048201526016602482015275457363726f773a20616c72656164792065786973747360501b6044820152606401610404565b5f8211610ade5760405162461bcd60e51b815260206004820152601f60248201527f457363726f773a20616d6f756e74206d75737420626520706f736974697665006044820152606401610404565b610b136001600160a01b037f000000000000000000000000000000000000000000000000000000000000000016333085610d7c565b6040805160a0810182526001600160a01b038087168252851660208201529081018390526060810160018152426020918201525f8781526001808352604091829020845181546001600160a01b03199081166001600160a01b0392831617835594860151828401805490961691161790935590830151600283015560608301516003830180549192909160ff191690836004811115610bb457610bb4610f30565b021790555060809190910151600490910155604080516001600160a01b03861681526020810184905286917f87d4c0b5e30d6808bc8a94ba1c4d839b29d664151551a31753387ee9ef48429b910160405180910390a2610c2060015f805160206110bc83398151915255565b5050505050565b610c318133610db2565b50565b5f610c3f8383610577565b610cbc575f838152602081815260408083206001600160a01b03861684529091529020805460ff19166001179055610c743390565b6001600160a01b0316826001600160a01b0316847f2f8788117e7eff1d82e926ec794901d17c78024a50270940304540a733656f0d60405160405180910390a4506001610315565b505f610315565b5f610cce8383610577565b15610cbc575f838152602081815260408083206001600160a01b0386168085529252808320805460ff1916905551339286917ff6391f5c32d9c69d2a47ea670b442974b53935d1edc7fd64eb21e047a839171b9190a4506001610315565b610d34610deb565b60025f805160206110bc83398151915255565b610d548383836001610e1c565b61037857604051635274afe760e01b81526001600160a01b0384166004820152602401610404565b610d8a848484846001610e7e565b61033f57604051635274afe760e01b81526001600160a01b0385166004820152602401610404565b610dbc8282610577565b6109545760405163e2517d3f60e01b81526001600160a01b038216600482015260248101839052604401610404565b5f805160206110bc83398151915254600203610e1a57604051633ee5aeb560e01b815260040160405180910390fd5b565b60405163a9059cbb60e01b5f8181526001600160a01b038616600452602485905291602083604481808b5af1925060015f51148316610e72578383151615610e66573d5f823e3d81fd5b5f873b113d1516831692505b60405250949350505050565b6040516323b872dd60e01b5f8181526001600160a01b038781166004528616602452604485905291602083606481808c5af1925060015f51148316610eda578383151615610ece573d5f823e3d81fd5b5f883b113d1516831692505b604052505f60605295945050505050565b5f60208284031215610efb575f80fd5b81356001600160e01b031981168114610f12575f80fd5b9392505050565b5f60208284031215610f29575f80fd5b5035919050565b634e487b7160e01b5f52602160045260245ffd5b6001600160a01b038681168252851660208201526040810184905260a0810160058410610f7f57634e487b7160e01b5f52602160045260245ffd5b6060820193909352608001529392505050565b80356001600160a01b0381168114610fa8575f80fd5b919050565b5f8060408385031215610fbe575f80fd5b82359150610fce60208401610f92565b90509250929050565b5f8060408385031215610fe8575f80fd5b50508035926020909101359150565b5f805f60608486031215611009575f80fd5b505081359360208301359350604090920135919050565b5f805f8060808587031215611033575f80fd5b8435935061104360208601610f92565b925061105160408601610f92565b9396929550929360600135925050565b634e487b7160e01b5f52601160045260245ffd5b8181038181111561031557610315611061565b808201808211156103155761031561106156fe97667070c54ef182b0f5858b034beac1b6f3089aa2d3188bb1e8929f4fa9b9299b779b17422d0df92223018b32b4d1fa46e071723d6817e2486d003becc55f00a26469706673582212208d1f480ad2d2547646daf63d9aae5fcbe80815888dd8113486aeddf03242f85264736f6c63430008180033",
  "linkReferences": {},
  "deployedLinkReferences": {}
}